{
  "_format": "hh3-artifact-1",
  "contractName": "LiskGarden",
  "sourceName": "contracts/LiskGarden.sol",
  "abi": [
    {
      "inputs": [],
      "stateMutability": "nonpayable",
      "type": "constructor"
    },
    {
      "anonymous": false,
      "inputs": [
        {
          "indexed": true,
          "internalType": "uint256",
          "name": "plantId",
          "type": "uint256"
        }
      ],
      "name": "PlantDied",
      "type": "event"
    },
    {
      "anonymous": false,
      "inputs": [
        {
          "indexed": true,
          "internalType": "uint256",
          "name": "plantId",
          "type": "uint256"
        },
        {
          "indexed": true,
          "internalType": "address",
          "name": "owner",
          "type": "address"
        },
        {
          "indexed": false,
          "internalType": "uint256",
          "name": "reward",
          "type": "uint256"
        }
      ],
      "name": "PlantHarvested",
      "type": "event"
    },
    {
      "anonymous": false,
      "inputs": [
        {
          "indexed": true,
          "internalType": "address",
          "name": "owner",
          "type": "address"
        },
        {
          "indexed": true,
          "internalType": "uint256",
          "name": "plantId",
          "type": "uint256"
        }
      ],
      "name": "PlantSeeded",
      "type": "event"
    },
    {
      "anonymous": false,
      "inputs": [
        {
          "indexed": true,
          "internalType": "uint256",
          "name": "plantId",
          "type": "uint256"
        },
        {
          "indexed": false,
          "internalType": "uint8",
          "name": "newWaterLevel",
          "type": "uint8"
        }
      ],
      "name": "PlantWatered",
      "type": "event"
    },
    {
      "anonymous": false,
      "inputs": [
        {
          "indexed": true,
          "internalType": "uint256",
          "name": "plantId",
          "type": "uint256"
        },
        {
          "indexed": false,
          "internalType": "enum LiskGarden.GrowthStage",
          "name": "newStage",
          "type": "uint8"
        }
      ],
      "name": "StageAdvanced",
      "type": "event"
    },
    {
      "inputs": [],
      "name": "HARVEST_REWARD",
      "outputs": [
        {
          "internalType": "uint256",
          "name": "",
          "type": "uint256"
        }
      ],
      "stateMutability": "view",
      "type": "function"
    },
    {
      "inputs": [],
      "name": "PLANT_PRICE",
      "outputs": [
        {
          "internalType": "uint256",
          "name": "",
          "type": "uint256"
        }
      ],
      "stateMutability": "view",
      "type": "function"
    },
    {
      "inputs": [],
      "name": "STAGE_DURATION",
      "outputs": [
        {
          "internalType": "uint256",
          "name": "",
          "type": "uint256"
        }
      ],
      "stateMutability": "view",
      "type": "function"
    },
    {
      "inputs": [],
      "name": "WATER_DEPLETION_RATE",
      "outputs": [
        {
          "internalType": "uint8",
          "name": "",
          "type": "uint8"
        }
      ],
      "stateMutability": "view",
      "type": "function"
    },
    {
      "inputs": [],
      "name": "WATER_DEPLETION_TIME",
      "outputs": [
        {
          "internalType": "uint256",
          "name": "",
          "type": "uint256"
        }
      ],
      "stateMutability": "view",
      "type": "function"
    },
    {
      "inputs": [
        {
          "internalType": "uint256",
          "name": "plantId",
          "type": "uint256"
        }
      ],
      "name": "calculateWaterLevel",
      "outputs": [
        {
          "internalType": "uint8",
          "name": "",
          "type": "uint8"
        }
      ],
      "stateMutability": "view",
      "type": "function"
    },
    {
      "inputs": [
        {
          "internalType": "uint256",
          "name": "plantId",
          "type": "uint256"
        }
      ],
      "name": "getPlant",
      "outputs": [
        {
          "components": [
            {
              "internalType": "uint256",
              "name": "id",
              "type": "uint256"
            },
            {
              "internalType": "address",
              "name": "owner",
              "type": "address"
            },
            {
              "internalType": "enum LiskGarden.GrowthStage",
              "name": "stage",
              "type": "uint8"
            },
            {
              "internalType": "uint256",
              "name": "plantedDate",
              "type": "uint256"
            },
            {
              "internalType": "uint256",
              "name": "lastWatered",
              "type": "uint256"
            },
            {
              "internalType": "uint8",
              "name": "waterLevel",
              "type": "uint8"
            },
            {
              "internalType": "bool",
              "name": "exists",
              "type": "bool"
            },
            {
              "internalType": "bool",
              "name": "isDead",
              "type": "bool"
            }
          ],
          "internalType": "struct LiskGarden.Plant",
          "name": "",
          "type": "tuple"
        }
      ],
      "stateMutability": "view",
      "type": "function"
    },
    {
      "inputs": [
        {
          "internalType": "address",
          "name": "user",
          "type": "address"
        }
      ],
      "name": "getUserPlants",
      "outputs": [
        {
          "internalType": "uint256[]",
          "name": "",
          "type": "uint256[]"
        }
      ],
      "stateMutability": "view",
      "type": "function"
    },
    {
      "inputs": [
        {
          "internalType": "uint256",
          "name": "plantId",
          "type": "uint256"
        }
      ],
      "name": "harvestPlant",
      "outputs": [],
      "stateMutability": "nonpayable",
      "type": "function"
    },
    {
      "inputs": [],
      "name": "owner",
      "outputs": [
        {
          "internalType": "address",
          "name": "",
          "type": "address"
        }
      ],
      "stateMutability": "view",
      "type": "function"
    },
    {
      "inputs": [],
      "name": "plantCounter",
      "outputs": [
        {
          "internalType": "uint256",
          "name": "",
          "type": "uint256"
        }
      ],
      "stateMutability": "view",
      "type": "function"
    },
    {
      "inputs": [],
      "name": "plantSeed",
      "outputs": [
        {
          "internalType": "uint256",
          "name": "",
          "type": "uint256"
        }
      ],
      "stateMutability": "payable",
      "type": "function"
    },
    {
      "inputs": [
        {
          "internalType": "uint256",
          "name": "",
          "type": "uint256"
        }
      ],
      "name": "plants",
      "outputs": [
        {
          "internalType": "uint256",
          "name": "id",
          "type": "uint256"
        },
        {
          "internalType": "address",
          "name": "owner",
          "type": "address"
        },
        {
          "internalType": "enum LiskGarden.GrowthStage",
          "name": "stage",
          "type": "uint8"
        },
        {
          "internalType": "uint256",
          "name": "plantedDate",
          "type": "uint256"
        },
        {
          "internalType": "uint256",
          "name": "lastWatered",
          "type": "uint256"
        },
        {
          "internalType": "uint8",
          "name": "waterLevel",
          "type": "uint8"
        },
        {
          "internalType": "bool",
          "name": "exists",
          "type": "bool"
        },
        {
          "internalType": "bool",
          "name": "isDead",
          "type": "bool"
        }
      ],
      "stateMutability": "view",
      "type": "function"
    },
    {
      "inputs": [
        {
          "internalType": "uint256",
          "name": "plantId",
          "type": "uint256"
        }
      ],
      "name": "updatePlantStage",
      "outputs": [],
      "stateMutability": "nonpayable",
      "type": "function"
    },
    {
      "inputs": [
        {
          "internalType": "address",
          "name": "",
          "type": "address"
        },
        {
          "internalType": "uint256",
          "name": "",
          "type": "uint256"
        }
      ],
      "name": "userPlants",
      "outputs": [
        {
          "internalType": "uint256",
          "name": "",
          "type": "uint256"
        }
      ],
      "stateMutability": "view",
      "type": "function"
    },
    {
      "inputs": [
        {
          "internalType": "uint256",
          "name": "plantId",
          "type": "uint256"
        }
      ],
      "name": "waterPlant",
      "outputs": [],
      "stateMutability": "nonpayable",
      "type": "function"
    },
    {
      "inputs": [],
      "name": "withdraw",
      "outputs": [],
      "stateMutability": "nonpayable",
      "type": "function"
    },
    {
      "stateMutability": "payable",
      "type": "receive"
    }
  ],
  "bytecode": "0x6080604052348015600e575f5ffd5b50600380546001600160a01b031916331790556110da8061002e5f395ff3fe6080604052600436106100fd575f3560e01c80638da5cb5b11610092578063bacb5ebd11610062578063bacb5ebd146102e9578063cfc9a5f8146102fd578063ddd4259614610317578063e38f844814610336578063ed0b1f5f14610355575f5ffd5b80638da5cb5b146101fb5780638dd2361c146102325780639886bcfa146102b55780639c471749146102d4575f5ffd5b8063754e150d116100cd578063754e150d1461017d5780637ed4c5be146101ae578063891c0785146101c25780638aee578b146101dc575f5ffd5b806330cec0eb146101085780633ccfd60b1461013d57806351f9efde1461015357806374119a3814610175575f5ffd5b3661010457005b5f5ffd5b348015610113575f5ffd5b50610127610122366004610e34565b610381565b6040516101349190610e54565b60405180910390f35b348015610148575f5ffd5b506101516103ea565b005b34801561015e575f5ffd5b50610167603c81565b604051908152602001610134565b6101676104ca565b348015610188575f5ffd5b5061019c610197366004610e96565b61067f565b60405160ff9091168152602001610134565b3480156101b9575f5ffd5b50610167601e81565b3480156101cd575f5ffd5b50610167660aa87bee53800081565b3480156101e7575f5ffd5b506101676101f6366004610ead565b610722565b348015610206575f5ffd5b5060035461021a906001600160a01b031681565b6040516001600160a01b039091168152602001610134565b34801561023d575f5ffd5b506102a161024c366004610e96565b5f602081905290815260409020805460018201546002830154600384015460049094015492936001600160a01b0383169360ff600160a01b909404841693818116916101008104821691620100009091041688565b604051610134989796959493929190610f09565b3480156102c0575f5ffd5b506101516102cf366004610e96565b61074d565b3480156102df575f5ffd5b5061016760025481565b3480156102f4575f5ffd5b5061019c600281565b348015610308575f5ffd5b5061016766038d7ea4c6800081565b348015610322575f5ffd5b50610151610331366004610e96565b610875565b348015610341575f5ffd5b50610151610350366004610e96565b610a76565b348015610360575f5ffd5b5061037461036f366004610e96565b610c8c565b6040516101349190610f5e565b6001600160a01b0381165f908152600160209081526040918290208054835181840281018401909452808452606093928301828280156103de57602002820191905f5260205f20905b8154815260200190600101908083116103ca575b50505050509050919050565b6003546001600160a01b031633146104355760405162461bcd60e51b81526020600482015260096024820152682737ba1037bbb732b960b91b60448201526064015b60405180910390fd5b6003546040515f916001600160a01b03169047908381818185875af1925050503d805f811461047f576040519150601f19603f3d011682016040523d82523d5f602084013e610484565b606091505b50509050806104c75760405162461bcd60e51b815260206004820152600f60248201526e151c985b9cd9995c8819985a5b1959608a1b604482015260640161042c565b50565b5f66038d7ea4c680003410156105225760405162461bcd60e51b815260206004820152601760248201527f4e65656420302e3030312045544820746f20706c616e74000000000000000000604482015260640161042c565b60028054905f61053183610fe9565b909155505060025460408051610100810182528281523360208083019182525f83850181815242606086018190526080860152606460a0860152600160c0860181905260e086018390528783529282905294902083518155915190820180546001600160a01b039092166001600160a01b03198316811782559451939492939290916001600160a81b03191617600160a01b8360038111156105d5576105d5610ed5565b0217905550606082015160028201556080820151600382015560a08201516004909101805460c084015160e0909401511515620100000262ff0000199415156101000261ffff1990921660ff909416939093171792909216179055335f818152600160208181526040808420805493840181558452908320909101849055518392917f4f5b22082ac57121703b0b6c1203ef527cfbfa5069616fee6deb979d124adbf091a3919050565b5f8181526020819052604081206004810154610100900460ff1615806106af5750600481015462010000900460ff165b156106bc57505f92915050565b5f8160030154426106cd9190611001565b90505f6106db601e8361101a565b90505f6106e9600283611039565b600485015490915060ff16811061070557505f95945050505050565b600484015461071890829060ff16611050565b9695505050505050565b6001602052815f5260405f20818154811061073b575f80fd5b905f5260205f20015f91509150505481565b5f8181526020819052604090206004810154610100900460ff166107835760405162461bcd60e51b815260040161042c90611069565b60018101546001600160a01b031633146107d05760405162461bcd60e51b815260206004820152600e60248201526d139bdd081e5bdd5c881c1b185b9d60921b604482015260640161042c565b600481015462010000900460ff161561081b5760405162461bcd60e51b815260206004820152600d60248201526c141b185b9d081a5cc819195859609a1b604482015260640161042c565b60048101805460ff1916606490811790915542600383015560405190815282907fd4b742b9ba48fffa1f14267075a7793851770764117c423fd0a6550dfc8cb5749060200160405180910390a261087182610875565b5050565b5f8181526020819052604090206004810154610100900460ff166108ab5760405162461bcd60e51b815260040161042c90611069565b6108b482610d8c565b600481015462010000900460ff16156108cb575050565b5f8160020154426108dc9190611001565b6001830154909150600160a01b900460ff16603c821080159061091d57505f6001840154600160a01b900460ff16600381111561091b5761091b610ed5565b145b15610941576001838101805460ff60a01b1916600160a01b835b02179055506109f0565b61094d603c6002611039565b821015801561097a5750600180840154600160a01b900460ff16600381111561097857610978610ed5565b145b1561099b576001830180546002919060ff60a01b1916600160a01b83610937565b6109a7603c6003611039565b82101580156109d5575060026001840154600160a01b900460ff1660038111156109d3576109d3610ed5565b145b156109f05760018301805460ff60a01b1916600360a01b1790555b806003811115610a0257610a02610ed5565b6001840154600160a01b900460ff166003811115610a2257610a22610ed5565b14610a7057600183015460405185917f338b8976706f9da67298dddfa1ea4ff7d99cce68b9ca39c4f348994f8e2124a891610a6791600160a01b900460ff1690611096565b60405180910390a25b50505050565b5f8181526020819052604090206004810154610100900460ff16610aac5760405162461bcd60e51b815260040161042c90611069565b60018101546001600160a01b03163314610af95760405162461bcd60e51b815260206004820152600e60248201526d139bdd081e5bdd5c881c1b185b9d60921b604482015260640161042c565b600481015462010000900460ff1615610b445760405162461bcd60e51b815260206004820152600d60248201526c141b185b9d081a5cc819195859609a1b604482015260640161042c565b610b4d82610875565b60036001820154600160a01b900460ff166003811115610b6f57610b6f610ed5565b14610bae5760405162461bcd60e51b815260206004820152600f60248201526e506c616e74206e6f7420726561647960881b604482015260640161042c565b60048101805461ff0019169055604051660aa87bee5380008152339083907f79f2138ea100070ff95b59c265da7aa3c7a0f61595fe1bb2f5fda2762f3988479060200160405180910390a36040515f903390660aa87bee538000908381818185875af1925050503d805f8114610c3f576040519150601f19603f3d011682016040523d82523d5f602084013e610c44565b606091505b5050905080610c875760405162461bcd60e51b815260206004820152600f60248201526e151c985b9cd9995c8819985a5b1959608a1b604482015260640161042c565b505050565b60408051610100810182525f80825260208201819052918101829052606081018290526080810182905260a0810182905260c0810182905260e08101919091525f828152602081815260408083208151610100810183528154815260018201546001600160a01b03811694820194909452929091830190600160a01b900460ff166003811115610d1e57610d1e610ed5565b6003811115610d2f57610d2f610ed5565b8152600282015460208201526003820154604082015260049091015460ff808216606084015261010082048116151560808401526201000090910416151560a0909101529050610d7e8361067f565b60ff1660a082015292915050565b5f81815260208190526040812090610da38361067f565b60048301805460ff191660ff8316908117909155909150158015610dd25750600482015462010000900460ff16155b15610c875760048201805462ff000019166201000017905560405183907fcc296a21951f3e57f21afb08547d835a0a9f0f06cc2867009cbe0cae44d36be9905f90a2505050565b80356001600160a01b0381168114610e2f575f5ffd5b919050565b5f60208284031215610e44575f5ffd5b610e4d82610e19565b9392505050565b602080825282518282018190525f918401906040840190835b81811015610e8b578351835260209384019390920191600101610e6d565b509095945050505050565b5f60208284031215610ea6575f5ffd5b5035919050565b5f5f60408385031215610ebe575f5ffd5b610ec783610e19565b946020939093013593505050565b634e487b7160e01b5f52602160045260245ffd5b60048110610f0557634e487b7160e01b5f52602160045260245ffd5b9052565b8881526001600160a01b03881660208201526101008101610f2d6040830189610ee9565b6060820196909652608081019490945260ff9290921660a0840152151560c0830152151560e0909101529392505050565b815181526020808301516001600160a01b031690820152604080830151610100830191610f8d90840182610ee9565b50606083015160608301526080830151608083015260ff60a08401511660a083015260c0830151151560c083015260e0830151610fce60e084018215159052565b5092915050565b634e487b7160e01b5f52601160045260245ffd5b5f60018201610ffa57610ffa610fd5565b5060010190565b8181038181111561101457611014610fd5565b92915050565b5f8261103457634e487b7160e01b5f52601260045260245ffd5b500490565b808202811582820484141761101457611014610fd5565b60ff828116828216039081111561101457611014610fd5565b602080825260139082015272141b185b9d08191bd95cdb89dd08195e1a5cdd606a1b604082015260600190565b602081016110148284610ee956fea264697066735822122012c497e22acf53a516cb41d49be927ddd075f4c4662bdcdde080e6333dbddf4b64736f6c634300081e0033",
  "linkReferences": {},
  "deployedLinkReferences": {},
  "immutableReferences": {},
  "inputSourceName": "project/contracts/LiskGarden.sol",
  "buildInfoId": "solc-0_8_30-75c63bcde6d54657f01d9fe12ee6af4de07ccbb3"
}